{
  "_format": "hh-sol-artifact-1",
  "contractName": "ArcTestContract",
  "sourceName": "contracts/ArcTestContract.sol",
  "abi": [
    {
      "inputs": [
        {
          "internalType": "string",
          "name": "_projectName",
          "type": "string"
        }
      ],
      "stateMutability": "nonpayable",
      "type": "constructor"
    },
    {
      "anonymous": false,
      "inputs": [
        {
          "indexed": true,
          "internalType": "address",
          "name": "user",
          "type": "address"
        },
        {
          "indexed": false,
          "internalType": "uint256",
          "name": "count",
          "type": "uint256"
        }
      ],
      "name": "Interaction",
      "type": "event"
    },
    {
      "anonymous": false,
      "inputs": [
        {
          "indexed": true,
          "internalType": "address",
          "name": "user",
          "type": "address"
        },
        {
          "indexed": false,
          "internalType": "uint256",
          "name": "timestamp",
          "type": "uint256"
        }
      ],
      "name": "UserRegistered",
      "type": "event"
    },
    {
      "inputs": [],
      "name": "deployedAt",
      "outputs": [
        {
          "internalType": "uint256",
          "name": "",
          "type": "uint256"
        }
      ],
      "stateMutability": "view",
      "type": "function"
    },
    {
      "inputs": [],
      "name": "interact",
      "outputs": [],
      "stateMutability": "nonpayable",
      "type": "function"
    },
    {
      "inputs": [],
      "name": "interactionCount",
      "outputs": [
        {
          "internalType": "uint256",
          "name": "",
          "type": "uint256"
        }
      ],
      "stateMutability": "view",
      "type": "function"
    },
    {
      "inputs": [
        {
          "internalType": "address",
          "name": "_user",
          "type": "address"
        }
      ],
      "name": "isRegistered",
      "outputs": [
        {
          "internalType": "bool",
          "name": "",
          "type": "bool"
        }
      ],
      "stateMutability": "view",
      "type": "function"
    },
    {
      "inputs": [],
      "name": "owner",
      "outputs": [
        {
          "internalType": "address",
          "name": "",
          "type": "address"
        }
      ],
      "stateMutability": "view",
      "type": "function"
    },
    {
      "inputs": [],
      "name": "projectName",
      "outputs": [
        {
          "internalType": "string",
          "name": "",
          "type": "string"
        }
      ],
      "stateMutability": "view",
      "type": "function"
    },
    {
      "inputs": [],
      "name": "register",
      "outputs": [],
      "stateMutability": "nonpayable",
      "type": "function"
    },
    {
      "inputs": [
        {
          "internalType": "address",
          "name": "",
          "type": "address"
        }
      ],
      "name": "registeredUsers",
      "outputs": [
        {
          "internalType": "bool",
          "name": "",
          "type": "bool"
        }
      ],
      "stateMutability": "view",
      "type": "function"
    },
    {
      "inputs": [],
      "name": "totalUsers",
      "outputs": [
        {
          "internalType": "uint256",
          "name": "",
          "type": "uint256"
        }
      ],
      "stateMutability": "view",
      "type": "function"
    },
    {
      "inputs": [
        {
          "internalType": "string",
          "name": "_newName",
          "type": "string"
        }
      ],
      "name": "updateProjectName",
      "outputs": [],
      "stateMutability": "nonpayable",
      "type": "function"
    },
    {
      "inputs": [
        {
          "internalType": "address",
          "name": "",
          "type": "address"
        }
      ],
      "name": "userInteractions",
      "outputs": [
        {
          "internalType": "uint256",
          "name": "",
          "type": "uint256"
        }
      ],
      "stateMutability": "view",
      "type": "function"
    },
    {
      "inputs": [
        {
          "internalType": "uint256",
          "name": "",
          "type": "uint256"
        }
      ],
      "name": "users",
      "outputs": [
        {
          "internalType": "address",
          "name": "",
          "type": "address"
        }
      ],
      "stateMutability": "view",
      "type": "function"
    }
  ],
  "bytecode": "0x60806040523480156200001157600080fd5b50604051620015e0380380620015e083398181016040528101906200003791906200022a565b336000806101000a81548173ffffffffffffffffffffffffffffffffffffffff021916908373ffffffffffffffffffffffffffffffffffffffff1602179055508060019081620000889190620004c6565b504260028190555050620005ad565b6000604051905090565b600080fd5b600080fd5b600080fd5b600080fd5b6000601f19601f8301169050919050565b7f4e487b7100000000000000000000000000000000000000000000000000000000600052604160045260246000fd5b6200010082620000b5565b810181811067ffffffffffffffff82111715620001225762000121620000c6565b5b80604052505050565b60006200013762000097565b9050620001458282620000f5565b919050565b600067ffffffffffffffff821115620001685762000167620000c6565b5b6200017382620000b5565b9050602081019050919050565b60005b83811015620001a057808201518184015260208101905062000183565b60008484015250505050565b6000620001c3620001bd846200014a565b6200012b565b905082815260208101848484011115620001e257620001e1620000b0565b5b620001ef84828562000180565b509392505050565b600082601f8301126200020f576200020e620000ab565b5b815162000221848260208601620001ac565b91505092915050565b600060208284031215620002435762000242620000a1565b5b600082015167ffffffffffffffff811115620002645762000263620000a6565b5b6200027284828501620001f7565b91505092915050565b600081519050919050565b7f4e487b7100000000000000000000000000000000000000000000000000000000600052602260045260246000fd5b60006002820490506001821680620002ce57607f821691505b602082108103620002e457620002e362000286565b5b50919050565b60008190508160005260206000209050919050565b60006020601f8301049050919050565b600082821b905092915050565b6000600883026200034e7fffffffffffffffffffffffffffffffffffffffffffffffffffffffffffffffff826200030f565b6200035a86836200030f565b95508019841693508086168417925050509392505050565b6000819050919050565b6000819050919050565b6000620003a7620003a16200039b8462000372565b6200037c565b62000372565b9050919050565b6000819050919050565b620003c38362000386565b620003db620003d282620003ae565b8484546200031c565b825550505050565b600090565b620003f2620003e3565b620003ff818484620003b8565b505050565b5b8181101562000427576200041b600082620003e8565b60018101905062000405565b5050565b601f82111562000476576200044081620002ea565b6200044b84620002ff565b810160208510156200045b578190505b620004736200046a85620002ff565b83018262000404565b50505b505050565b600082821c905092915050565b60006200049b600019846008026200047b565b1980831691505092915050565b6000620004b6838362000488565b9150826002028217905092915050565b620004d1826200027b565b67ffffffffffffffff811115620004ed57620004ec620000c6565b5b620004f98254620002b5565b620005068282856200042b565b600060209050601f8311600181146200053e576000841562000529578287015190505b620005358582620004a8565b865550620005a5565b601f1984166200054e86620002ea565b60005b82811015620005785784890151825560018201915060208501945060208101905062000551565b8683101562000598578489015162000594601f89168262000488565b8355505b6001600288020188555050505b505050505050565b61102380620005bd6000396000f3fe608060405234801561001057600080fd5b50600436106100b45760003560e01c80639a33e300116100715780639a33e3001461017b578063a890610b14610199578063bff1f9e1146101b7578063c3c5a547146101d5578063c6da612814610205578063eae4c19f14610221576100b4565b80630e50cee5146100b95780631aa3a008146100e9578063365b98b2146100f357806352337ab0146101235780638b80688b1461012d5780638da5cb5b1461015d575b600080fd5b6100d360048036038101906100ce919061080a565b61023f565b6040516100e09190610852565b60405180910390f35b6100f161025f565b005b61010d600480360381019061010891906108a3565b6103f7565b60405161011a91906108df565b60405180910390f35b61012b610436565b005b6101476004803603810190610142919061080a565b6105be565b6040516101549190610909565b60405180910390f35b6101656105d6565b60405161017291906108df565b60405180910390f35b6101836105fa565b60405161019091906109b4565b60405180910390f35b6101a1610688565b6040516101ae9190610909565b60405180910390f35b6101bf61068e565b6040516101cc9190610909565b60405180910390f35b6101ef60048036038101906101ea919061080a565b61069b565b6040516101fc9190610852565b60405180910390f35b61021f600480360381019061021a9190610b0b565b6106f1565b005b610229610792565b6040516102369190610909565b60405180910390f35b60056020528060005260406000206000915054906101000a900460ff1681565b600560003373ffffffffffffffffffffffffffffffffffffffff1673ffffffffffffffffffffffffffffffffffffffff16815260200190815260200160002060009054906101000a900460ff16156102ec576040517f08c379a00000000000000000000000000000000000000000000000000000000081526004016102e390610ba0565b60405180910390fd5b6001600560003373ffffffffffffffffffffffffffffffffffffffff1673ffffffffffffffffffffffffffffffffffffffff16815260200190815260200160002060006101000a81548160ff0219169083151502179055506006339080600181540180825580915050600190039060005260206000200160009091909190916101000a81548173ffffffffffffffffffffffffffffffffffffffff021916908373ffffffffffffffffffffffffffffffffffffffff1602179055503373ffffffffffffffffffffffffffffffffffffffff167fe29d35093005f4d575e1003753426b57a7f64378ba73332eef9c6ccc2b8decd6426040516103ed9190610909565b60405180910390a2565b6006818154811061040757600080fd5b906000526020600020016000915054906101000a900473ffffffffffffffffffffffffffffffffffffffff1681565b600560003373ffffffffffffffffffffffffffffffffffffffff1673ffffffffffffffffffffffffffffffffffffffff16815260200190815260200160002060009054906101000a900460ff166104c2576040517f08c379a00000000000000000000000000000000000000000000000000000000081526004016104b990610c0c565b60405180910390fd5b600460003373ffffffffffffffffffffffffffffffffffffffff1673ffffffffffffffffffffffffffffffffffffffff168152602001908152602001600020600081548092919061051290610c5b565b91905055506003600081548092919061052a90610c5b565b91905055503373ffffffffffffffffffffffffffffffffffffffff167ff12489dc722d1cccd7b674152f04c8cce3e81ceb99919ed914fc0a318923c2c4600460003373ffffffffffffffffffffffffffffffffffffffff1673ffffffffffffffffffffffffffffffffffffffff168152602001908152602001600020546040516105b49190610909565b60405180910390a2565b60046020528060005260406000206000915090505481565b60008054906101000a900473ffffffffffffffffffffffffffffffffffffffff1681565b6001805461060790610cd2565b80601f016020809104026020016040519081016040528092919081815260200182805461063390610cd2565b80156106805780601f1061065557610100808354040283529160200191610680565b820191906000526020600020905b81548152906001019060200180831161066357829003601f168201915b505050505081565b60035481565b6000600680549050905090565b6000600560008373ffffffffffffffffffffffffffffffffffffffff1673ffffffffffffffffffffffffffffffffffffffff16815260200190815260200160002060009054906101000a900460ff169050919050565b60008054906101000a900473ffffffffffffffffffffffffffffffffffffffff1673ffffffffffffffffffffffffffffffffffffffff163373ffffffffffffffffffffffffffffffffffffffff161461077f576040517f08c379a000000000000000000000000000000000000000000000000000000000815260040161077690610d4f565b60405180910390fd5b806001908161078e9190610f1b565b5050565b60025481565b6000604051905090565b600080fd5b600080fd5b600073ffffffffffffffffffffffffffffffffffffffff82169050919050565b60006107d7826107ac565b9050919050565b6107e7816107cc565b81146107f257600080fd5b50565b600081359050610804816107de565b92915050565b6000602082840312156108205761081f6107a2565b5b600061082e848285016107f5565b91505092915050565b60008115159050919050565b61084c81610837565b82525050565b60006020820190506108676000830184610843565b92915050565b6000819050919050565b6108808161086d565b811461088b57600080fd5b50565b60008135905061089d81610877565b92915050565b6000602082840312156108b9576108b86107a2565b5b60006108c78482850161088e565b91505092915050565b6108d9816107cc565b82525050565b60006020820190506108f460008301846108d0565b92915050565b6109038161086d565b82525050565b600060208201905061091e60008301846108fa565b92915050565b600081519050919050565b600082825260208201905092915050565b60005b8381101561095e578082015181840152602081019050610943565b60008484015250505050565b6000601f19601f8301169050919050565b600061098682610924565b610990818561092f565b93506109a0818560208601610940565b6109a98161096a565b840191505092915050565b600060208201905081810360008301526109ce818461097b565b905092915050565b600080fd5b600080fd5b7f4e487b7100000000000000000000000000000000000000000000000000000000600052604160045260246000fd5b610a188261096a565b810181811067ffffffffffffffff82111715610a3757610a366109e0565b5b80604052505050565b6000610a4a610798565b9050610a568282610a0f565b919050565b600067ffffffffffffffff821115610a7657610a756109e0565b5b610a7f8261096a565b9050602081019050919050565b82818337600083830152505050565b6000610aae610aa984610a5b565b610a40565b905082815260208101848484011115610aca57610ac96109db565b5b610ad5848285610a8c565b509392505050565b600082601f830112610af257610af16109d6565b5b8135610b02848260208601610a9b565b91505092915050565b600060208284031215610b2157610b206107a2565b5b600082013567ffffffffffffffff811115610b3f57610b3e6107a7565b5b610b4b84828501610add565b91505092915050565b7f416c726561647920726567697374657265640000000000000000000000000000600082015250565b6000610b8a60128361092f565b9150610b9582610b54565b602082019050919050565b60006020820190508181036000830152610bb981610b7d565b9050919050565b7f5265676973746572206669727374000000000000000000000000000000000000600082015250565b6000610bf6600e8361092f565b9150610c0182610bc0565b602082019050919050565b60006020820190508181036000830152610c2581610be9565b9050919050565b7f4e487b7100000000000000000000000000000000000000000000000000000000600052601160045260246000fd5b6000610c668261086d565b91507fffffffffffffffffffffffffffffffffffffffffffffffffffffffffffffffff8203610c9857610c97610c2c565b5b600182019050919050565b7f4e487b7100000000000000000000000000000000000000000000000000000000600052602260045260246000fd5b60006002820490506001821680610cea57607f821691505b602082108103610cfd57610cfc610ca3565b5b50919050565b7f4e6f7420746865206f776e657200000000000000000000000000000000000000600082015250565b6000610d39600d8361092f565b9150610d4482610d03565b602082019050919050565b60006020820190508181036000830152610d6881610d2c565b9050919050565b60008190508160005260206000209050919050565b60006020601f8301049050919050565b600082821b905092915050565b600060088302610dd17fffffffffffffffffffffffffffffffffffffffffffffffffffffffffffffffff82610d94565b610ddb8683610d94565b95508019841693508086168417925050509392505050565b6000819050919050565b6000610e18610e13610e0e8461086d565b610df3565b61086d565b9050919050565b6000819050919050565b610e3283610dfd565b610e46610e3e82610e1f565b848454610da1565b825550505050565b600090565b610e5b610e4e565b610e66818484610e29565b505050565b5b81811015610e8a57610e7f600082610e53565b600181019050610e6c565b5050565b601f821115610ecf57610ea081610d6f565b610ea984610d84565b81016020851015610eb8578190505b610ecc610ec485610d84565b830182610e6b565b50505b505050565b600082821c905092915050565b6000610ef260001984600802610ed4565b1980831691505092915050565b6000610f0b8383610ee1565b9150826002028217905092915050565b610f2482610924565b67ffffffffffffffff811115610f3d57610f3c6109e0565b5b610f478254610cd2565b610f52828285610e8e565b600060209050601f831160018114610f855760008415610f73578287015190505b610f7d8582610eff565b865550610fe5565b601f198416610f9386610d6f565b60005b82811015610fbb57848901518255600182019150602085019450602081019050610f96565b86831015610fd85784890151610fd4601f891682610ee1565b8355505b6001600288020188555050505b50505050505056fea264697066735822122070cecb687052fcfc631cfd40d2f0bf5bceff2403c8621b3f614b74b74f64a96264736f6c63430008180033",
  "linkReferences": {},
  "deployedLinkReferences": {}
}