{
  "_format": "hh-sol-artifact-1",
  "contractName": "USDCPayment",
  "sourceName": "contracts/USDCPayment.sol",
  "abi": [
    {
      "inputs": [
        {
          "internalType": "address",
          "name": "_usdcAddress",
          "type": "address"
        }
      ],
      "stateMutability": "nonpayable",
      "type": "constructor"
    },
    {
      "anonymous": false,
      "inputs": [
        {
          "indexed": true,
          "internalType": "address",
          "name": "from",
          "type": "address"
        },
        {
          "indexed": true,
          "internalType": "address",
          "name": "to",
          "type": "address"
        },
        {
          "indexed": false,
          "internalType": "uint256",
          "name": "amount",
          "type": "uint256"
        }
      ],
      "name": "PaymentSent",
      "type": "event"
    },
    {
      "inputs": [
        {
          "internalType": "address",
          "name": "account",
          "type": "address"
        }
      ],
      "name": "getBalance",
      "outputs": [
        {
          "internalType": "uint256",
          "name": "",
          "type": "uint256"
        }
      ],
      "stateMutability": "view",
      "type": "function"
    },
    {
      "inputs": [],
      "name": "owner",
      "outputs": [
        {
          "internalType": "address",
          "name": "",
          "type": "address"
        }
      ],
      "stateMutability": "view",
      "type": "function"
    },
    {
      "inputs": [
        {
          "internalType": "address",
          "name": "to",
          "type": "address"
        },
        {
          "internalType": "uint256",
          "name": "amount",
          "type": "uint256"
        }
      ],
      "name": "sendPayment",
      "outputs": [],
      "stateMutability": "nonpayable",
      "type": "function"
    },
    {
      "inputs": [],
      "name": "totalPayments",
      "outputs": [
        {
          "internalType": "uint256",
          "name": "",
          "type": "uint256"
        }
      ],
      "stateMutability": "view",
      "type": "function"
    },
    {
      "inputs": [],
      "name": "usdc",
      "outputs": [
        {
          "internalType": "contract IERC20",
          "name": "",
          "type": "address"
        }
      ],
      "stateMutability": "view",
      "type": "function"
    }
  ],
  "bytecode": "0x608060405234801561001057600080fd5b5060405161093b38038061093b8339818101604052810190610032919061011c565b336000806101000a81548173ffffffffffffffffffffffffffffffffffffffff021916908373ffffffffffffffffffffffffffffffffffffffff16021790555080600160006101000a81548173ffffffffffffffffffffffffffffffffffffffff021916908373ffffffffffffffffffffffffffffffffffffffff16021790555050610149565b600080fd5b600073ffffffffffffffffffffffffffffffffffffffff82169050919050565b60006100e9826100be565b9050919050565b6100f9816100de565b811461010457600080fd5b50565b600081519050610116816100f0565b92915050565b600060208284031215610132576101316100b9565b5b600061014084828501610107565b91505092915050565b6107e3806101586000396000f3fe608060405234801561001057600080fd5b50600436106100565760003560e01c80625b44871461005b5780633e413bee146100795780638da5cb5b14610097578063935f4c18146100b5578063f8b2cb4f146100d1575b600080fd5b610063610101565b60405161007091906103b4565b60405180910390f35b610081610107565b60405161008e919061044e565b60405180910390f35b61009f61012d565b6040516100ac919061048a565b60405180910390f35b6100cf60048036038101906100ca9190610502565b610151565b005b6100eb60048036038101906100e69190610542565b6102f6565b6040516100f891906103b4565b60405180910390f35b60025481565b600160009054906101000a900473ffffffffffffffffffffffffffffffffffffffff1681565b60008054906101000a900473ffffffffffffffffffffffffffffffffffffffff1681565b60008111610194576040517f08c379a000000000000000000000000000000000000000000000000000000000815260040161018b906105cc565b60405180910390fd5b600160009054906101000a900473ffffffffffffffffffffffffffffffffffffffff1673ffffffffffffffffffffffffffffffffffffffff166323b872dd3384846040518463ffffffff1660e01b81526004016101f3939291906105ec565b6020604051808303816000875af1158015610212573d6000803e3d6000fd5b505050506040513d601f19601f82011682018060405250810190610236919061065b565b610275576040517f08c379a000000000000000000000000000000000000000000000000000000000815260040161026c906106d4565b60405180910390fd5b6002600081548092919061028890610723565b91905055508173ffffffffffffffffffffffffffffffffffffffff163373ffffffffffffffffffffffffffffffffffffffff167fd52bd61f7c422d441e024604f4517878fd3305d6acf0fe37baef23ed21af6bc9836040516102ea91906103b4565b60405180910390a35050565b6000600160009054906101000a900473ffffffffffffffffffffffffffffffffffffffff1673ffffffffffffffffffffffffffffffffffffffff166370a08231836040518263ffffffff1660e01b8152600401610353919061048a565b602060405180830381865afa158015610370573d6000803e3d6000fd5b505050506040513d601f19601f820116820180604052508101906103949190610780565b9050919050565b6000819050919050565b6103ae8161039b565b82525050565b60006020820190506103c960008301846103a5565b92915050565b600073ffffffffffffffffffffffffffffffffffffffff82169050919050565b6000819050919050565b600061041461040f61040a846103cf565b6103ef565b6103cf565b9050919050565b6000610426826103f9565b9050919050565b60006104388261041b565b9050919050565b6104488161042d565b82525050565b6000602082019050610463600083018461043f565b92915050565b6000610474826103cf565b9050919050565b61048481610469565b82525050565b600060208201905061049f600083018461047b565b92915050565b600080fd5b6104b381610469565b81146104be57600080fd5b50565b6000813590506104d0816104aa565b92915050565b6104df8161039b565b81146104ea57600080fd5b50565b6000813590506104fc816104d6565b92915050565b60008060408385031215610519576105186104a5565b5b6000610527858286016104c1565b9250506020610538858286016104ed565b9150509250929050565b600060208284031215610558576105576104a5565b5b6000610566848285016104c1565b91505092915050565b600082825260208201905092915050565b7f416d6f756e74206d7573742062652067726561746572207468616e2030000000600082015250565b60006105b6601d8361056f565b91506105c182610580565b602082019050919050565b600060208201905081810360008301526105e5816105a9565b9050919050565b6000606082019050610601600083018661047b565b61060e602083018561047b565b61061b60408301846103a5565b949350505050565b60008115159050919050565b61063881610623565b811461064357600080fd5b50565b6000815190506106558161062f565b92915050565b600060208284031215610671576106706104a5565b5b600061067f84828501610646565b91505092915050565b7f5472616e73666572206661696c65640000000000000000000000000000000000600082015250565b60006106be600f8361056f565b91506106c982610688565b602082019050919050565b600060208201905081810360008301526106ed816106b1565b9050919050565b7f4e487b7100000000000000000000000000000000000000000000000000000000600052601160045260246000fd5b600061072e8261039b565b91507fffffffffffffffffffffffffffffffffffffffffffffffffffffffffffffffff82036107605761075f6106f4565b5b600182019050919050565b60008151905061077a816104d6565b92915050565b600060208284031215610796576107956104a5565b5b60006107a48482850161076b565b9150509291505056fea264697066735822122046dab23c7609b07b1979193223e0d6c09b51c5b5b52e7fe27676dc1f8fbb28ae64736f6c63430008180033",
  "linkReferences": {},
  "deployedLinkReferences": {}
}